{
  "_format": "hh-sol-artifact-1",
  "contractName": "ERC1400",
  "sourceName": "contracts/ERC1400.sol",
  "abi": [
    {
      "inputs": [
        {
          "internalType": "string",
          "name": "tokenName",
          "type": "string"
        },
        {
          "internalType": "string",
          "name": "tokenSymbol",
          "type": "string"
        },
        {
          "internalType": "uint256",
          "name": "tokenGranularity",
          "type": "uint256"
        },
        {
          "internalType": "address[]",
          "name": "initialControllers",
          "type": "address[]"
        },
        {
          "internalType": "bytes32[]",
          "name": "defaultPartitions",
          "type": "bytes32[]"
        }
      ],
      "stateMutability": "nonpayable",
      "type": "constructor"
    },
    {
      "anonymous": false,
      "inputs": [
        {
          "indexed": true,
          "internalType": "address",
          "name": "owner",
          "type": "address"
        },
        {
          "indexed": true,
          "internalType": "address",
          "name": "spender",
          "type": "address"
        },
        {
          "indexed": false,
          "internalType": "uint256",
          "name": "value",
          "type": "uint256"
        }
      ],
      "name": "Approval",
      "type": "event"
    },
    {
      "anonymous": false,
      "inputs": [
        {
          "indexed": true,
          "internalType": "bytes32",
          "name": "partition",
          "type": "bytes32"
        },
        {
          "indexed": true,
          "internalType": "address",
          "name": "owner",
          "type": "address"
        },
        {
          "indexed": true,
          "internalType": "address",
          "name": "spender",
          "type": "address"
        },
        {
          "indexed": false,
          "internalType": "uint256",
          "name": "value",
          "type": "uint256"
        }
      ],
      "name": "ApprovalByPartition",
      "type": "event"
    },
    {
      "anonymous": false,
      "inputs": [
        {
          "indexed": true,
          "internalType": "address",
          "name": "operator",
          "type": "address"
        },
        {
          "indexed": true,
          "internalType": "address",
          "name": "tokenHolder",
          "type": "address"
        }
      ],
      "name": "AuthorizedOperator",
      "type": "event"
    },
    {
      "anonymous": false,
      "inputs": [
        {
          "indexed": true,
          "internalType": "bytes32",
          "name": "partition",
          "type": "bytes32"
        },
        {
          "indexed": true,
          "internalType": "address",
          "name": "operator",
          "type": "address"
        },
        {
          "indexed": true,
          "internalType": "address",
          "name": "tokenHolder",
          "type": "address"
        }
      ],
      "name": "AuthorizedOperatorByPartition",
      "type": "event"
    },
    {
      "anonymous": false,
      "inputs": [
        {
          "indexed": true,
          "internalType": "bytes32",
          "name": "fromPartition",
          "type": "bytes32"
        },
        {
          "indexed": true,
          "internalType": "bytes32",
          "name": "toPartition",
          "type": "bytes32"
        },
        {
          "indexed": false,
          "internalType": "uint256",
          "name": "value",
          "type": "uint256"
        }
      ],
      "name": "ChangedPartition",
      "type": "event"
    },
    {
      "anonymous": false,
      "inputs": [
        {
          "indexed": true,
          "internalType": "bytes32",
          "name": "name",
          "type": "bytes32"
        },
        {
          "indexed": false,
          "internalType": "string",
          "name": "uri",
          "type": "string"
        },
        {
          "indexed": false,
          "internalType": "bytes32",
          "name": "documentHash",
          "type": "bytes32"
        }
      ],
      "name": "DocumentRemoved",
      "type": "event"
    },
    {
      "anonymous": false,
      "inputs": [
        {
          "indexed": true,
          "internalType": "bytes32",
          "name": "name",
          "type": "bytes32"
        },
        {
          "indexed": false,
          "internalType": "string",
          "name": "uri",
          "type": "string"
        },
        {
          "indexed": false,
          "internalType": "bytes32",
          "name": "documentHash",
          "type": "bytes32"
        }
      ],
      "name": "DocumentUpdated",
      "type": "event"
    },
    {
      "anonymous": false,
      "inputs": [
        {
          "indexed": true,
          "internalType": "address",
          "name": "operator",
          "type": "address"
        },
        {
          "indexed": true,
          "internalType": "address",
          "name": "to",
          "type": "address"
        },
        {
          "indexed": false,
          "internalType": "uint256",
          "name": "value",
          "type": "uint256"
        },
        {
          "indexed": false,
          "internalType": "bytes",
          "name": "data",
          "type": "bytes"
        }
      ],
      "name": "Issued",
      "type": "event"
    },
    {
      "anonymous": false,
      "inputs": [
        {
          "indexed": true,
          "internalType": "bytes32",
          "name": "partition",
          "type": "bytes32"
        },
        {
          "indexed": true,
          "internalType": "address",
          "name": "operator",
          "type": "address"
        },
        {
          "indexed": true,
          "internalType": "address",
          "name": "to",
          "type": "address"
        },
        {
          "indexed": false,
          "internalType": "uint256",
          "name": "value",
          "type": "uint256"
        },
        {
          "indexed": false,
          "internalType": "bytes",
          "name": "data",
          "type": "bytes"
        },
        {
          "indexed": false,
          "internalType": "bytes",
          "name": "operatorData",
          "type": "bytes"
        }
      ],
      "name": "IssuedByPartition",
      "type": "event"
    },
    {
      "anonymous": false,
      "inputs": [
        {
          "indexed": true,
          "internalType": "address",
          "name": "account",
          "type": "address"
        }
      ],
      "name": "MinterAdded",
      "type": "event"
    },
    {
      "anonymous": false,
      "inputs": [
        {
          "indexed": true,
          "internalType": "address",
          "name": "account",
          "type": "address"
        }
      ],
      "name": "MinterRemoved",
      "type": "event"
    },
    {
      "anonymous": false,
      "inputs": [
        {
          "indexed": true,
          "internalType": "address",
          "name": "previousOwner",
          "type": "address"
        },
        {
          "indexed": true,
          "internalType": "address",
          "name": "newOwner",
          "type": "address"
        }
      ],
      "name": "OwnershipTransferred",
      "type": "event"
    },
    {
      "anonymous": false,
      "inputs": [
        {
          "indexed": true,
          "internalType": "address",
          "name": "operator",
          "type": "address"
        },
        {
          "indexed": true,
          "internalType": "address",
          "name": "from",
          "type": "address"
        },
        {
          "indexed": false,
          "internalType": "uint256",
          "name": "value",
          "type": "uint256"
        },
        {
          "indexed": false,
          "internalType": "bytes",
          "name": "data",
          "type": "bytes"
        }
      ],
      "name": "Redeemed",
      "type": "event"
    },
    {
      "anonymous": false,
      "inputs": [
        {
          "indexed": true,
          "internalType": "bytes32",
          "name": "partition",
          "type": "bytes32"
        },
        {
          "indexed": true,
          "internalType": "address",
          "name": "operator",
          "type": "address"
        },
        {
          "indexed": true,
          "internalType": "address",
          "name": "from",
          "type": "address"
        },
        {
          "indexed": false,
          "internalType": "uint256",
          "name": "value",
          "type": "uint256"
        },
        {
          "indexed": false,
          "internalType": "bytes",
          "name": "operatorData",
          "type": "bytes"
        }
      ],
      "name": "RedeemedByPartition",
      "type": "event"
    },
    {
      "anonymous": false,
      "inputs": [
        {
          "indexed": true,
          "internalType": "address",
          "name": "operator",
          "type": "address"
        },
        {
          "indexed": true,
          "internalType": "address",
          "name": "tokenHolder",
          "type": "address"
        }
      ],
      "name": "RevokedOperator",
      "type": "event"
    },
    {
      "anonymous": false,
      "inputs": [
        {
          "indexed": true,
          "internalType": "bytes32",
          "name": "partition",
          "type": "bytes32"
        },
        {
          "indexed": true,
          "internalType": "address",
          "name": "operator",
          "type": "address"
        },
        {
          "indexed": true,
          "internalType": "address",
          "name": "tokenHolder",
          "type": "address"
        }
      ],
      "name": "RevokedOperatorByPartition",
      "type": "event"
    },
    {
      "anonymous": false,
      "inputs": [
        {
          "indexed": true,
          "internalType": "address",
          "name": "from",
          "type": "address"
        },
        {
          "indexed": true,
          "internalType": "address",
          "name": "to",
          "type": "address"
        },
        {
          "indexed": false,
          "internalType": "uint256",
          "name": "value",
          "type": "uint256"
        }
      ],
      "name": "Transfer",
      "type": "event"
    },
    {
      "anonymous": false,
      "inputs": [
        {
          "indexed": true,
          "internalType": "bytes32",
          "name": "fromPartition",
          "type": "bytes32"
        },
        {
          "indexed": false,
          "internalType": "address",
          "name": "operator",
          "type": "address"
        },
        {
          "indexed": true,
          "internalType": "address",
          "name": "from",
          "type": "address"
        },
        {
          "indexed": true,
          "internalType": "address",
          "name": "to",
          "type": "address"
        },
        {
          "indexed": false,
          "internalType": "uint256",
          "name": "value",
          "type": "uint256"
        },
        {
          "indexed": false,
          "internalType": "bytes",
          "name": "data",
          "type": "bytes"
        },
        {
          "indexed": false,
          "internalType": "bytes",
          "name": "operatorData",
          "type": "bytes"
        }
      ],
      "name": "TransferByPartition",
      "type": "event"
    },
    {
      "inputs": [
        {
          "internalType": "address",
          "name": "account",
          "type": "address"
        }
      ],
      "name": "addMinter",
      "outputs": [],
      "stateMutability": "nonpayable",
      "type": "function"
    },
    {
      "inputs": [
        {
          "internalType": "address",
          "name": "owner",
          "type": "address"
        },
        {
          "internalType": "address",
          "name": "spender",
          "type": "address"
        }
      ],
      "name": "allowance",
      "outputs": [
        {
          "internalType": "uint256",
          "name": "",
          "type": "uint256"
        }
      ],
      "stateMutability": "view",
      "type": "function"
    },
    {
      "inputs": [
        {
          "internalType": "bytes32",
          "name": "partition",
          "type": "bytes32"
        },
        {
          "internalType": "address",
          "name": "owner",
          "type": "address"
        },
        {
          "internalType": "address",
          "name": "spender",
          "type": "address"
        }
      ],
      "name": "allowanceByPartition",
      "outputs": [
        {
          "internalType": "uint256",
          "name": "",
          "type": "uint256"
        }
      ],
      "stateMutability": "view",
      "type": "function"
    },
    {
      "inputs": [
        {
          "internalType": "address",
          "name": "spender",
          "type": "address"
        },
        {
          "internalType": "uint256",
          "name": "value",
          "type": "uint256"
        }
      ],
      "name": "approve",
      "outputs": [
        {
          "internalType": "bool",
          "name": "",
          "type": "bool"
        }
      ],
      "stateMutability": "nonpayable",
      "type": "function"
    },
    {
      "inputs": [
        {
          "internalType": "bytes32",
          "name": "partition",
          "type": "bytes32"
        },
        {
          "internalType": "address",
          "name": "spender",
          "type": "address"
        },
        {
          "internalType": "uint256",
          "name": "value",
          "type": "uint256"
        }
      ],
      "name": "approveByPartition",
      "outputs": [
        {
          "internalType": "bool",
          "name": "",
          "type": "bool"
        }
      ],
      "stateMutability": "nonpayable",
      "type": "function"
    },
    {
      "inputs": [
        {
          "internalType": "address",
          "name": "operator",
          "type": "address"
        }
      ],
      "name": "authorizeOperator",
      "outputs": [],
      "stateMutability": "nonpayable",
      "type": "function"
    },
    {
      "inputs": [
        {
          "internalType": "bytes32",
          "name": "partition",
          "type": "bytes32"
        },
        {
          "internalType": "address",
          "name": "operator",
          "type": "address"
        }
      ],
      "name": "authorizeOperatorByPartition",
      "outputs": [],
      "stateMutability": "nonpayable",
      "type": "function"
    },
    {
      "inputs": [
        {
          "internalType": "address",
          "name": "tokenHolder",
          "type": "address"
        }
      ],
      "name": "balanceOf",
      "outputs": [
        {
          "internalType": "uint256",
          "name": "",
          "type": "uint256"
        }
      ],
      "stateMutability": "view",
      "type": "function"
    },
    {
      "inputs": [
        {
          "internalType": "bytes32",
          "name": "partition",
          "type": "bytes32"
        },
        {
          "internalType": "address",
          "name": "tokenHolder",
          "type": "address"
        }
      ],
      "name": "balanceOfByPartition",
      "outputs": [
        {
          "internalType": "uint256",
          "name": "",
          "type": "uint256"
        }
      ],
      "stateMutability": "view",
      "type": "function"
    },
    {
      "inputs": [
        {
          "internalType": "bytes32",
          "name": "interfaceHash",
          "type": "bytes32"
        },
        {
          "internalType": "address",
          "name": "",
          "type": "address"
        }
      ],
      "name": "canImplementInterfaceForAddress",
      "outputs": [
        {
          "internalType": "bytes32",
          "name": "",
          "type": "bytes32"
        }
      ],
      "stateMutability": "view",
      "type": "function"
    },
    {
      "inputs": [],
      "name": "controllers",
      "outputs": [
        {
          "internalType": "address[]",
          "name": "",
          "type": "address[]"
        }
      ],
      "stateMutability": "view",
      "type": "function"
    },
    {
      "inputs": [
        {
          "internalType": "bytes32",
          "name": "partition",
          "type": "bytes32"
        }
      ],
      "name": "controllersByPartition",
      "outputs": [
        {
          "internalType": "address[]",
          "name": "",
          "type": "address[]"
        }
      ],
      "stateMutability": "view",
      "type": "function"
    },
    {
      "inputs": [],
      "name": "decimals",
      "outputs": [
        {
          "internalType": "uint8",
          "name": "",
          "type": "uint8"
        }
      ],
      "stateMutability": "pure",
      "type": "function"
    },
    {
      "inputs": [],
      "name": "domainName",
      "outputs": [
        {
          "internalType": "string",
          "name": "",
          "type": "string"
        }
      ],
      "stateMutability": "view",
      "type": "function"
    },
    {
      "inputs": [],
      "name": "domainSeparator",
      "outputs": [
        {
          "internalType": "bytes32",
          "name": "",
          "type": "bytes32"
        }
      ],
      "stateMutability": "nonpayable",
      "type": "function"
    },
    {
      "inputs": [],
      "name": "domainVersion",
      "outputs": [
        {
          "internalType": "string",
          "name": "",
          "type": "string"
        }
      ],
      "stateMutability": "pure",
      "type": "function"
    },
    {
      "inputs": [],
      "name": "generateDomainSeparator",
      "outputs": [
        {
          "internalType": "bytes32",
          "name": "",
          "type": "bytes32"
        }
      ],
      "stateMutability": "view",
      "type": "function"
    },
    {
      "inputs": [],
      "name": "getAllDocuments",
      "outputs": [
        {
          "internalType": "bytes32[]",
          "name": "",
          "type": "bytes32[]"
        }
      ],
      "stateMutability": "view",
      "type": "function"
    },
    {
      "inputs": [],
      "name": "getDefaultPartitions",
      "outputs": [
        {
          "internalType": "bytes32[]",
          "name": "",
          "type": "bytes32[]"
        }
      ],
      "stateMutability": "view",
      "type": "function"
    },
    {
      "inputs": [
        {
          "internalType": "bytes32",
          "name": "documentName",
          "type": "bytes32"
        }
      ],
      "name": "getDocument",
      "outputs": [
        {
          "internalType": "string",
          "name": "",
          "type": "string"
        },
        {
          "internalType": "bytes32",
          "name": "",
          "type": "bytes32"
        },
        {
          "internalType": "uint256",
          "name": "",
          "type": "uint256"
        }
      ],
      "stateMutability": "view",
      "type": "function"
    },
    {
      "inputs": [],
      "name": "granularity",
      "outputs": [
        {
          "internalType": "uint256",
          "name": "",
          "type": "uint256"
        }
      ],
      "stateMutability": "view",
      "type": "function"
    },
    {
      "inputs": [],
      "name": "isControllable",
      "outputs": [
        {
          "internalType": "bool",
          "name": "",
          "type": "bool"
        }
      ],
      "stateMutability": "view",
      "type": "function"
    },
    {
      "inputs": [],
      "name": "isIssuable",
      "outputs": [
        {
          "internalType": "bool",
          "name": "",
          "type": "bool"
        }
      ],
      "stateMutability": "view",
      "type": "function"
    },
    {
      "inputs": [
        {
          "internalType": "address",
          "name": "account",
          "type": "address"
        }
      ],
      "name": "isMinter",
      "outputs": [
        {
          "internalType": "bool",
          "name": "",
          "type": "bool"
        }
      ],
      "stateMutability": "view",
      "type": "function"
    },
    {
      "inputs": [
        {
          "internalType": "address",
          "name": "operator",
          "type": "address"
        },
        {
          "internalType": "address",
          "name": "tokenHolder",
          "type": "address"
        }
      ],
      "name": "isOperator",
      "outputs": [
        {
          "internalType": "bool",
          "name": "",
          "type": "bool"
        }
      ],
      "stateMutability": "view",
      "type": "function"
    },
    {
      "inputs": [
        {
          "internalType": "bytes32",
          "name": "partition",
          "type": "bytes32"
        },
        {
          "internalType": "address",
          "name": "operator",
          "type": "address"
        },
        {
          "internalType": "address",
          "name": "tokenHolder",
          "type": "address"
        }
      ],
      "name": "isOperatorForPartition",
      "outputs": [
        {
          "internalType": "bool",
          "name": "",
          "type": "bool"
        }
      ],
      "stateMutability": "view",
      "type": "function"
    },
    {
      "inputs": [
        {
          "internalType": "address",
          "name": "tokenHolder",
          "type": "address"
        },
        {
          "internalType": "uint256",
          "name": "value",
          "type": "uint256"
        },
        {
          "internalType": "bytes",
          "name": "data",
          "type": "bytes"
        }
      ],
      "name": "issue",
      "outputs": [],
      "stateMutability": "nonpayable",
      "type": "function"
    },
    {
      "inputs": [
        {
          "internalType": "bytes32",
          "name": "partition",
          "type": "bytes32"
        },
        {
          "internalType": "address",
          "name": "tokenHolder",
          "type": "address"
        },
        {
          "internalType": "uint256",
          "name": "value",
          "type": "uint256"
        },
        {
          "internalType": "bytes",
          "name": "data",
          "type": "bytes"
        }
      ],
      "name": "issueByPartition",
      "outputs": [],
      "stateMutability": "nonpayable",
      "type": "function"
    },
    {
      "inputs": [
        {
          "internalType": "address",
          "name": "newContractAddress",
          "type": "address"
        },
        {
          "internalType": "bool",
          "name": "definitive",
          "type": "bool"
        }
      ],
      "name": "migrate",
      "outputs": [],
      "stateMutability": "nonpayable",
      "type": "function"
    },
    {
      "inputs": [],
      "name": "name",
      "outputs": [
        {
          "internalType": "string",
          "name": "",
          "type": "string"
        }
      ],
      "stateMutability": "view",
      "type": "function"
    },
    {
      "inputs": [
        {
          "internalType": "bytes32",
          "name": "partition",
          "type": "bytes32"
        },
        {
          "internalType": "address",
          "name": "tokenHolder",
          "type": "address"
        },
        {
          "internalType": "uint256",
          "name": "value",
          "type": "uint256"
        },
        {
          "internalType": "bytes",
          "name": "operatorData",
          "type": "bytes"
        }
      ],
      "name": "operatorRedeemByPartition",
      "outputs": [],
      "stateMutability": "nonpayable",
      "type": "function"
    },
    {
      "inputs": [
        {
          "internalType": "bytes32",
          "name": "partition",
          "type": "bytes32"
        },
        {
          "internalType": "address",
          "name": "from",
          "type": "address"
        },
        {
          "internalType": "address",
          "name": "to",
          "type": "address"
        },
        {
          "internalType": "uint256",
          "name": "value",
          "type": "uint256"
        },
        {
          "internalType": "bytes",
          "name": "data",
          "type": "bytes"
        },
        {
          "internalType": "bytes",
          "name": "operatorData",
          "type": "bytes"
        }
      ],
      "name": "operatorTransferByPartition",
      "outputs": [
        {
          "internalType": "bytes32",
          "name": "",
          "type": "bytes32"
        }
      ],
      "stateMutability": "nonpayable",
      "type": "function"
    },
    {
      "inputs": [],
      "name": "owner",
      "outputs": [
        {
          "internalType": "address",
          "name": "",
          "type": "address"
        }
      ],
      "stateMutability": "view",
      "type": "function"
    },
    {
      "inputs": [
        {
          "internalType": "address",
          "name": "tokenHolder",
          "type": "address"
        }
      ],
      "name": "partitionsOf",
      "outputs": [
        {
          "internalType": "bytes32[]",
          "name": "",
          "type": "bytes32[]"
        }
      ],
      "stateMutability": "view",
      "type": "function"
    },
    {
      "inputs": [
        {
          "internalType": "uint256",
          "name": "value",
          "type": "uint256"
        },
        {
          "internalType": "bytes",
          "name": "data",
          "type": "bytes"
        }
      ],
      "name": "redeem",
      "outputs": [],
      "stateMutability": "nonpayable",
      "type": "function"
    },
    {
      "inputs": [
        {
          "internalType": "bytes32",
          "name": "partition",
          "type": "bytes32"
        },
        {
          "internalType": "uint256",
          "name": "value",
          "type": "uint256"
        },
        {
          "internalType": "bytes",
          "name": "data",
          "type": "bytes"
        }
      ],
      "name": "redeemByPartition",
      "outputs": [],
      "stateMutability": "nonpayable",
      "type": "function"
    },
    {
      "inputs": [
        {
          "internalType": "address",
          "name": "from",
          "type": "address"
        },
        {
          "internalType": "uint256",
          "name": "value",
          "type": "uint256"
        },
        {
          "internalType": "bytes",
          "name": "data",
          "type": "bytes"
        }
      ],
      "name": "redeemFrom",
      "outputs": [],
      "stateMutability": "nonpayable",
      "type": "function"
    },
    {
      "inputs": [
        {
          "internalType": "bytes32",
          "name": "documentName",
          "type": "bytes32"
        }
      ],
      "name": "removeDocument",
      "outputs": [],
      "stateMutability": "nonpayable",
      "type": "function"
    },
    {
      "inputs": [
        {
          "internalType": "address",
          "name": "account",
          "type": "address"
        }
      ],
      "name": "removeMinter",
      "outputs": [],
      "stateMutability": "nonpayable",
      "type": "function"
    },
    {
      "inputs": [],
      "name": "renounceControl",
      "outputs": [],
      "stateMutability": "nonpayable",
      "type": "function"
    },
    {
      "inputs": [],
      "name": "renounceIssuance",
      "outputs": [],
      "stateMutability": "nonpayable",
      "type": "function"
    },
    {
      "inputs": [],
      "name": "renounceMinter",
      "outputs": [],
      "stateMutability": "nonpayable",
      "type": "function"
    },
    {
      "inputs": [],
      "name": "renounceOwnership",
      "outputs": [],
      "stateMutability": "nonpayable",
      "type": "function"
    },
    {
      "inputs": [
        {
          "internalType": "address",
          "name": "operator",
          "type": "address"
        }
      ],
      "name": "revokeOperator",
      "outputs": [],
      "stateMutability": "nonpayable",
      "type": "function"
    },
    {
      "inputs": [
        {
          "internalType": "bytes32",
          "name": "partition",
          "type": "bytes32"
        },
        {
          "internalType": "address",
          "name": "operator",
          "type": "address"
        }
      ],
      "name": "revokeOperatorByPartition",
      "outputs": [],
      "stateMutability": "nonpayable",
      "type": "function"
    },
    {
      "inputs": [
        {
          "internalType": "address[]",
          "name": "operators",
          "type": "address[]"
        }
      ],
      "name": "setControllers",
      "outputs": [],
      "stateMutability": "nonpayable",
      "type": "function"
    },
    {
      "inputs": [
        {
          "internalType": "bytes32[]",
          "name": "partitions",
          "type": "bytes32[]"
        }
      ],
      "name": "setDefaultPartitions",
      "outputs": [],
      "stateMutability": "nonpayable",
      "type": "function"
    },
    {
      "inputs": [
        {
          "internalType": "bytes32",
          "name": "documentName",
          "type": "bytes32"
        },
        {
          "internalType": "string",
          "name": "uri",
          "type": "string"
        },
        {
          "internalType": "bytes32",
          "name": "documentHash",
          "type": "bytes32"
        }
      ],
      "name": "setDocument",
      "outputs": [],
      "stateMutability": "nonpayable",
      "type": "function"
    },
    {
      "inputs": [
        {
          "internalType": "bytes32",
          "name": "partition",
          "type": "bytes32"
        },
        {
          "internalType": "address[]",
          "name": "operators",
          "type": "address[]"
        }
      ],
      "name": "setPartitionControllers",
      "outputs": [],
      "stateMutability": "nonpayable",
      "type": "function"
    },
    {
      "inputs": [
        {
          "internalType": "address",
          "name": "extension",
          "type": "address"
        },
        {
          "internalType": "string",
          "name": "interfaceLabel",
          "type": "string"
        },
        {
          "internalType": "bool",
          "name": "removeOldExtensionRoles",
          "type": "bool"
        },
        {
          "internalType": "bool",
          "name": "addMinterRoleForExtension",
          "type": "bool"
        },
        {
          "internalType": "bool",
          "name": "addControllerRoleForExtension",
          "type": "bool"
        }
      ],
      "name": "setTokenExtension",
      "outputs": [],
      "stateMutability": "nonpayable",
      "type": "function"
    },
    {
      "inputs": [],
      "name": "symbol",
      "outputs": [
        {
          "internalType": "string",
          "name": "",
          "type": "string"
        }
      ],
      "stateMutability": "view",
      "type": "function"
    },
    {
      "inputs": [],
      "name": "totalPartitions",
      "outputs": [
        {
          "internalType": "bytes32[]",
          "name": "",
          "type": "bytes32[]"
        }
      ],
      "stateMutability": "view",
      "type": "function"
    },
    {
      "inputs": [],
      "name": "totalSupply",
      "outputs": [
        {
          "internalType": "uint256",
          "name": "",
          "type": "uint256"
        }
      ],
      "stateMutability": "view",
      "type": "function"
    },
    {
      "inputs": [
        {
          "internalType": "bytes32",
          "name": "partition",
          "type": "bytes32"
        }
      ],
      "name": "totalSupplyByPartition",
      "outputs": [
        {
          "internalType": "uint256",
          "name": "",
          "type": "uint256"
        }
      ],
      "stateMutability": "view",
      "type": "function"
    },
    {
      "inputs": [
        {
          "internalType": "address",
          "name": "to",
          "type": "address"
        },
        {
          "internalType": "uint256",
          "name": "value",
          "type": "uint256"
        }
      ],
      "name": "transfer",
      "outputs": [
        {
          "internalType": "bool",
          "name": "",
          "type": "bool"
        }
      ],
      "stateMutability": "nonpayable",
      "type": "function"
    },
    {
      "inputs": [
        {
          "internalType": "bytes32",
          "name": "partition",
          "type": "bytes32"
        },
        {
          "internalType": "address",
          "name": "to",
          "type": "address"
        },
        {
          "internalType": "uint256",
          "name": "value",
          "type": "uint256"
        },
        {
          "internalType": "bytes",
          "name": "data",
          "type": "bytes"
        }
      ],
      "name": "transferByPartition",
      "outputs": [
        {
          "internalType": "bytes32",
          "name": "",
          "type": "bytes32"
        }
      ],
      "stateMutability": "nonpayable",
      "type": "function"
    },
    {
      "inputs": [
        {
          "internalType": "address",
          "name": "from",
          "type": "address"
        },
        {
          "internalType": "address",
          "name": "to",
          "type": "address"
        },
        {
          "internalType": "uint256",
          "name": "value",
          "type": "uint256"
        }
      ],
      "name": "transferFrom",
      "outputs": [
        {
          "internalType": "bool",
          "name": "",
          "type": "bool"
        }
      ],
      "stateMutability": "nonpayable",
      "type": "function"
    },
    {
      "inputs": [
        {
          "internalType": "address",
          "name": "from",
          "type": "address"
        },
        {
          "internalType": "address",
          "name": "to",
          "type": "address"
        },
        {
          "internalType": "uint256",
          "name": "value",
          "type": "uint256"
        },
        {
          "internalType": "bytes",
          "name": "data",
          "type": "bytes"
        }
      ],
      "name": "transferFromWithData",
      "outputs": [],
      "stateMutability": "nonpayable",
      "type": "function"
    },
    {
      "inputs": [
        {
          "internalType": "address",
          "name": "newOwner",
          "type": "address"
        }
      ],
      "name": "transferOwnership",
      "outputs": [],
      "stateMutability": "nonpayable",
      "type": "function"
    },
    {
      "inputs": [
        {
          "internalType": "address",
          "name": "to",
          "type": "address"
        },
        {
          "internalType": "uint256",
          "name": "value",
          "type": "uint256"
        },
        {
          "internalType": "bytes",
          "name": "data",
          "type": "bytes"
        }
      ],
      "name": "transferWithData",
      "outputs": [],
      "stateMutability": "nonpayable",
      "type": "function"
    }
  ],
  "bytecode": "0x60806040523480156200001157600080fd5b5060405162005044380380620050448339810160408190526200003491620008f5565b6200003f33620001c0565b6200004a3362000210565b6200005462000262565b5084516200006a906004906020880190620006cc565b50835162000080906005906020870190620006cc565b50600060075560018310156200009557600080fd5b6006839055620000a58262000288565b8051620000ba9060149060208401906200075b565b506008805462ffff0019166201010017905560408051808201909152600c81526b22a921989a18182a37b5b2b760a11b6020808301919091526200010a9190309062000385811b6200200617901c565b620001436040518060400160405280600a81526020016922a92199182a37b5b2b760b11b815250306200038560201b620020061760201c565b6200017d6040518060400160405280600c81526020016b22a921989a18182a37b5b2b760a11b8152506200043360201b620020b01760201c565b620001b56040518060400160405280600a81526020016922a92199182a37b5b2b760b11b8152506200043360201b620020b01760201c565b505050505062000b6b565b600080546001600160a01b038381166001600160a01b0319831681178455604051919092169283917f8be0079c531659141344cd1fd0a4f28419497f9722a3daafe3b4186f6b6457e09190a35050565b6200022b8160026200048260201b620020fd1790919060201c565b6040516001600160a01b038216907f6ae172837ea30b801fbfcdd4108aa1d5bf8ff775444fd70256b44e6bf3dfc3f690600090a250565b600046816200027062000506565b60009283526003602052604090922082905550919050565b60005b601654811015620002fb5760006017600060168481548110620002b257620002b262000b3f565b6000918252602080832091909101546001600160a01b031683528201929092526040019020805460ff191691151591909117905580620002f28162000b15565b9150506200028b565b5060005b81518110156200036b5760016017600084848151811062000324576200032462000b3f565b6020908102919091018101516001600160a01b03168252810191909152604001600020805460ff191691151591909117905580620003628162000b15565b915050620002ff565b5080516200038190601690602084019062000798565b5050565b6000826040516020016200039a919062000a2e565b60408051808303601f190181529082905280516020909101206329965a1d60e01b8252306004830152602482018190526001600160a01b03841660448301529150731820a4b7618bde71dce8cdc73aab6c95905fad24906329965a1d90606401600060405180830381600087803b1580156200041557600080fd5b505af11580156200042a573d6000803e3d6000fd5b50505050505050565b6001806000836040516020016200044b919062000a2e565b60408051808303601f19018152918152815160209283012083529082019290925201600020805460ff191691151591909117905550565b6200048e8282620005ad565b15620004e15760405162461bcd60e51b815260206004820152601f60248201527f526f6c65733a206163636f756e7420616c72656164792068617320726f6c650060448201526064015b60405180910390fd5b6001600160a01b0316600090815260209190915260409020805460ff19166001179055565b600046817f8b73c3c69bb8fe3d512ecc4cf759cc79239f7b179b0ffacaa9a75d522b39400f6200053562000632565b80516020909101206200055c6040805180820190915260018152603160f81b602082015290565b80516020918201206040805192830194909452928101919091526060810191909152608081018390523060a082015260c00160408051601f1981840301815291905280516020909101209392505050565b60006001600160a01b038216620006125760405162461bcd60e51b815260206004820152602260248201527f526f6c65733a206163636f756e7420697320746865207a65726f206164647265604482015261737360f01b6064820152608401620004d8565b506001600160a01b03166000908152602091909152604090205460ff1690565b606060048054620006439062000ad8565b80601f0160208091040260200160405190810160405280929190818152602001828054620006719062000ad8565b8015620006c25780601f106200069657610100808354040283529160200191620006c2565b820191906000526020600020905b815481529060010190602001808311620006a457829003601f168201915b5050505050905090565b828054620006da9062000ad8565b90600052602060002090601f016020900481019282620006fe576000855562000749565b82601f106200071957805160ff191683800117855562000749565b8280016001018555821562000749579182015b82811115620007495782518255916020019190600101906200072c565b5062000757929150620007f0565b5090565b828054828255906000526020600020908101928215620007495791602002820182811115620007495782518255916020019190600101906200072c565b82805482825590600052602060002090810192821562000749579160200282015b828111156200074957825182546001600160a01b0319166001600160a01b03909116178255602090920191600190910190620007b9565b5b80821115620007575760008155600101620007f1565b600082601f8301126200081957600080fd5b81516020620008326200082c8362000a7f565b62000a4c565b80838252828201915082860187848660051b89010111156200085357600080fd5b60005b85811015620008745781518452928401929084019060010162000856565b5090979650505050505050565b600082601f8301126200089357600080fd5b81516001600160401b03811115620008af57620008af62000b55565b620008c4601f8201601f191660200162000a4c565b818152846020838601011115620008da57600080fd5b620008ed82602083016020870162000aa5565b949350505050565b600080600080600060a086880312156200090e57600080fd5b85516001600160401b03808211156200092657600080fd5b6200093489838a0162000881565b96506020915081880151818111156200094c57600080fd5b6200095a8a828b0162000881565b965050604088015194506060880151818111156200097757600080fd5b8801601f81018a136200098957600080fd5b80516200099a6200082c8262000a7f565b8082825285820191508584018d878560051b8701011115620009bb57600080fd5b600094505b83851015620009f65780516001600160a01b0381168114620009e157600080fd5b835260019490940193918601918601620009c0565b5060808c015190975094505050508082111562000a1257600080fd5b5062000a218882890162000807565b9150509295509295909350565b6000825162000a4281846020870162000aa5565b9190910192915050565b604051601f8201601f191681016001600160401b038111828210171562000a775762000a7762000b55565b604052919050565b60006001600160401b0382111562000a9b5762000a9b62000b55565b5060051b60200190565b60005b8381101562000ac257818101518382015260200162000aa8565b8381111562000ad2576000848401525b50505050565b600181811c9082168062000aed57607f821691505b6020821081141562000b0f57634e487b7160e01b600052602260045260246000fd5b50919050565b600060001982141562000b3857634e487b7160e01b600052601160045260246000fd5b5060010190565b634e487b7160e01b600052603260045260246000fd5b634e487b7160e01b600052604160045260246000fd5b6144c98062000b7b6000396000f3fe608060405234801561001057600080fd5b50600436106103a45760003560e01c80638c0dee9c116101e9578063b10d6b411161010f578063e77c646d116100ad578063f2fde38b1161007c578063f2fde38b1461082b578063f3d490db1461083e578063f698da2514610851578063fad8b32a1461085957600080fd5b8063e77c646d146107df578063ea74838a146107f2578063ec9a6e8714610805578063ee532f311461081857600080fd5b8063bcfdc0cf116100e9578063bcfdc0cf14610783578063c35018481461078b578063ca281fd91461079e578063dd62ed3e146107a657600080fd5b8063b10d6b411461073b578063b6363cf21461075d578063bb3acde91461077057600080fd5b80639865027511610187578063a6f4f10511610156578063a6f4f105146106fa578063a8082cb01461070d578063a9059cbb14610715578063aa271e1a1461072857600080fd5b806398650275146106b757806398ddcec7146106bf5780639fa5f50b146106d2578063a26734dc146106da57600080fd5b8063959b8c3f116101c3578063959b8c3f1461067657806395d89b41146106895780639675193c14610691578063983b2d56146106a457600080fd5b80638c0dee9c146106355780638da5cb5b14610648578063933964c71461066357600080fd5b806330e82803116102ce5780636c30d1701161026c578063740ab8f41161023b578063740ab8f4146105fa5780637cc0c3a71461060d578063861ed3ea14610622578063895d7386146103be57600080fd5b80636c30d170146105ae5780636d77cad6146105b657806370a08231146105c9578063715018a6146105f257600080fd5b8063556f0dc7116102a8578063556f0dc71461056b57806362eb00681461057357806367c849191461058657806369598efe1461059957600080fd5b806330e8280314610519578063313ce5671461054c5780634c783bf51461055b57600080fd5b806317ec83ca11610346578063249cb3fa11610315578063249cb3fa146104cf5780632535f762146104e25780632f1cae85146104f55780633092afd51461050657600080fd5b806317ec83ca1461044b57806318160ddd146104975780631d43e1c01461049f57806323b872dd146104bc57600080fd5b8063103ef9e111610382578063103ef9e1146103ff57806314d1e62f14610412578063168ecec51461042557806316e1aed41461043857600080fd5b8063010648ca146103a957806306fdde03146103be578063095ea7b3146103dc575b600080fd5b6103bc6103b7366004613f57565b61086c565b005b6103c66109a6565b6040516103d391906141fc565b60405180910390f35b6103ef6103ea366004613cc8565b610a38565b60405190151581526020016103d3565b6103bc61040d366004613dab565b610ace565b6103ef610420366004613eba565b610b32565b6103bc610433366004613dab565b610bca565b6103bc610446366004613f0b565b610c2b565b610489610459366004613dd0565b60009283526018602090815260408085206001600160a01b03948516865282528085209290931684525290205490565b6040519081526020016103d3565b600754610489565b6040805180820190915260018152603160f81b60208201526103c6565b6103ef6104ca366004613b58565b610c75565b6104896104dd366004613dab565b610d97565b6103bc6104f0366004613cf4565b610df6565b60085462010000900460ff166103ef565b6103bc610514366004613ae5565b610e3f565b610489610527366004613dab565b6001600160a01b03166000908152601360209081526040808320938352929052205490565b604051601281526020016103d3565b600854610100900460ff166103ef565b600654610489565b6103bc610581366004613faa565b610e72565b6103bc610594366004613ee1565b610ec3565b6105a1610f5c565b6040516103d39190614126565b6103bc610fb3565b6103ef6105c4366004613dd0565b610fc9565b6104896105d7366004613ae5565b6001600160a01b031660009081526009602052604090205490565b6103bc610fde565b6105a1610608366004613ae5565b610ff2565b61061561105e565b6040516103d391906140d9565b610615610630366004613d92565b6110bf565b610489610643366004613e12565b61112a565b6000546040516001600160a01b0390911681526020016103d3565b6103bc610671366004613c0c565b6112cf565b6103bc610684366004613ae5565b6112e5565b6103c6611354565b6103bc61069f366004613cf4565b611363565b6103bc6106b2366004613ae5565b61149f565b6103bc6114cf565b6103bc6106cd366004613ee1565b6114d8565b6105a161165e565b6104896106e8366004613d92565b60009081526010602052604090205490565b6103bc610708366004613c41565b6116b4565b610489611709565b6103ef610723366004613cc8565b6117ac565b6103ef610736366004613ae5565b6117d3565b61074e610749366004613d92565b6117e0565b6040516103d393929190614231565b6103ef61076b366004613b1f565b6118be565b6103bc61077e366004613cf4565b6118d1565b6105a16119a0565b6103bc610799366004613d92565b6119f6565b6103bc611ccb565b6104896107b4366004613b1f565b6001600160a01b039182166000908152600a6020908152604080832093909416825291909152205490565b6103bc6107ed366004613fe5565b611ce0565b6103bc610800366004613d50565b611d22565b6103bc610813366004613d50565b611d66565b6103bc610826366004613b99565b611d7a565b6103bc610839366004613ae5565b611eb7565b61048961084c366004613ee1565b611f2d565b610489611f8b565b6103bc610867366004613ae5565b611f9a565b3360009081526017602052604090205460ff1661088857600080fd5b604051806060016040528084848080601f0160208091040260200160405190810160405280939291908181526020018383808284376000920182905250938552505050602080830185905242604093840152878252600b81529190208251805191926108f9928492909101906138df565b5060208281015160018301556040928301516002909201919091556000838152600c909152205461096457600d80546001810182557fd7b6990105719101dabeb77144f2a3385c8033acd3af97e9423a695e81ad1eb501829055546000828152600c60205260409020555b837fb4c22d60cd550a815744f04e3ff5278bf19684565ee00e2b084041b6024bd6f6848484604051610998939291906141d8565b60405180910390a250505050565b6060600480546109b5906143e6565b80601f01602080910402602001604051908101604052809291908181526020018280546109e1906143e6565b8015610a2e5780601f10610a0357610100808354040283529160200191610a2e565b820191906000526020600020905b815481529060010190602001808311610a1157829003601f168201915b5050505050905090565b60006001600160a01b038316610a695760405162461bcd60e51b8152600401610a609061428e565b60405180910390fd5b336000818152600a602090815260408083206001600160a01b03881680855290835292819020869055518581529192917f8c5be1e5ebec7d5bd14f71427d1e84f3dd0314c0f7b2291e5b200ac8c7c3b925910160405180910390a35060015b92915050565b33600081815260196020908152604080832086845282528083206001600160a01b0386168085529252808320805460ff1916600117905551909185917f3646a897c70797ecc134b0adc32f471b07bf1d6f451133b0384badab531e3fd69190a45050565b60006001600160a01b038316610b5a5760405162461bcd60e51b8152600401610a609061428e565b6000848152601860209081526040808320338085529083528184206001600160a01b038816808652908452938290208690559051858152909187917ff061499aa77c2f6f5e25e34955a06623705344a88256cc861a121ec0bce5cfec910160405180910390a45060019392505050565b33600081815260196020908152604080832086845282528083206001600160a01b0386168085529252808320805460ff1916905551909185917f3b287c4f1bab4df949b33bceacef984f544dc5d5479930d00e4ee8c9d8dd96f29190a45050565b610c33612179565b610c70838383808060200260200160405190810160405280939291908181526020018383602002808284376000920191909152506121d392505050565b505050565b6000610c8133856122f6565b80610caf57506001600160a01b0384166000908152600a602090815260408083203384529091529020548211155b610ccb5760405162461bcd60e51b8152600401610a60906142c6565b6001600160a01b0384166000908152600a602090815260408083203384529091529020548211610d4c576001600160a01b0384166000908152600a60209081526040808320338452909152902054610d239083612375565b6001600160a01b0385166000908152600a60209081526040808320338452909152902055610d71565b6001600160a01b0384166000908152600a602090815260408083203384529091528120555b610d8d3385858560405180602001604052806000815250612381565b5060019392505050565b60008281526001602052604081205460ff1615610dee5760405173455243313832305f4143434550545f4d4147494360601b6020820152603401604051602081830303815290604052805190602001209050610ac8565b506000610ac8565b610e393333868686868080601f01602080910402602001604051908101604052809392919081815260200183838082843760009201919091525061238192505050565b50505050565b610e48336117d3565b80610e5d57506000546001600160a01b031633145b610e6657600080fd5b610e6f816124c6565b50565b610e398433338686868080601f016020809104026020016040519081016040528093929190818152602001838380828437600092018290525060408051602081019091529081529250612508915050565b610ecc336117d3565b80610ee157506000546001600160a01b031633145b610eea57600080fd5b60085462010000900460ff16610f125760405162461bcd60e51b8152600401610a60906142aa565b610f558533868686868080601f0160208091040260200160405190810160405280939291908181526020018383808284376000920191909152506125d892505050565b5050505050565b6060600e805480602002602001604051908101604052809291908181526020018280548015610a2e57602002820191906000526020600020905b815481526020019060010190808311610f96575050505050905090565b610fbb612179565b6008805462ff000019169055565b6000610fd6848484612682565b949350505050565b610fe6612179565b610ff0600061270b565b565b6001600160a01b03811660009081526011602090815260409182902080548351818402810184019094528084526060939283018282801561105257602002820191906000526020600020905b81548152602001906001019080831161103e575b50505050509050919050565b60606016805480602002602001604051908101604052809291908181526020018280548015610a2e57602002820191906000526020600020905b81546001600160a01b03168152600190910190602001808311611098575050505050905090565b6000818152601a602090815260409182902080548351818402810184019094528084526060939283018282801561105257602002820191906000526020600020905b81546001600160a01b031681526001909101906020018083116111015750505050509050919050565b600061113789338a612682565b8061116c575060008981526018602090815260408083206001600160a01b038c16845282528083203384529091529020548611155b6111885760405162461bcd60e51b8152600401610a60906142c6565b60008981526018602090815260408083206001600160a01b038c1684528252808320338452909152902054861161121e5760008981526018602090815260408083206001600160a01b038c16845282528083203384529091529020546111ee9087612375565b60008a81526018602090815260408083206001600160a01b038d168452825280832033845290915290205561124a565b60008981526018602090815260408083206001600160a01b038c16845282528083203384529091528120555b6112c289338a8a8a8a8a8080601f01602080910402602001604051908101604052809392919081815260200183838082843760009201919091525050604080516020601f8e018190048102820181019092528c815292508c91508b908190840183828082843760009201919091525061275b92505050565b9998505050505050505050565b6112d7612179565b6112e182826128b3565b5050565b6001600160a01b0381163314156112fb57600080fd5b6001600160a01b0381166000818152601560209081526040808320338085529252808320805460ff19166001179055519092917ff4caeb2d6ca8932a215a353d0703c326ec2d81fc68170f320eb2ab49e9df61f991a350565b6060600580546109b5906143e6565b61136d33856122f6565b8061139b57506001600160a01b0384166000908152600a602090815260408083203384529091529020548311155b6113b75760405162461bcd60e51b8152600401610a60906142c6565b6001600160a01b0384166000908152600a602090815260408083203384529091529020548311611438576001600160a01b0384166000908152600a6020908152604080832033845290915290205461140f9084612375565b6001600160a01b0385166000908152600a6020908152604080832033845290915290205561145d565b6001600160a01b0384166000908152600a602090815260408083203384529091528120555b610e3933858585858080601f01602080910402602001604051908101604052809392919081815260200183838082843760009201919091525061292492505050565b6114a8336117d3565b806114bd57506000546001600160a01b031633145b6114c657600080fd5b610e6f81612a5e565b610ff0336124c6565b6114e3853386612682565b80611518575060008581526018602090815260408083206001600160a01b038816845282528083203384529091529020548311155b6115495760405162461bcd60e51b815260206004820152600260248201526106a760f31b6044820152606401610a60565b60008581526018602090815260408083206001600160a01b0388168452825280832033845290915290205483116115df5760008581526018602090815260408083206001600160a01b038816845282528083203384529091529020546115af9084612375565b60008681526018602090815260408083206001600160a01b0389168452825280832033845290915290205561160b565b60008581526018602090815260408083206001600160a01b038816845282528083203384529091528120555b610f55853386866040518060200160405280600081525087878080601f01602080910402602001604051908101604052809392919081815260200183838082843760009201919091525061250892505050565b6060600d805480602002602001604051908101604052809291908181526020018280548015610a2e5760200282019190600052602060002090815481526020019060010190808311610f96575050505050905090565b6116bc612179565b6117018686868080601f016020809104026020016040519081016040528093929190818152602001838380828437600092019190915250889250879150869050612aa0565b505050505050565b600046817f8b73c3c69bb8fe3d512ecc4cf759cc79239f7b179b0ffacaa9a75d522b39400f6117366109a6565b8051906020012061175b6040805180820190915260018152603160f81b602082015290565b80516020918201206040805192830194909452928101919091526060810191909152608081018390523060a082015260c00160408051601f1981840301815291905280516020909101209392505050565b60006117ca3333858560405180602001604052806000815250612381565b50600192915050565b6000610ac8600283612b5c565b6000818152600b6020526040812080546060929182916117ff906143e6565b1515905061180c57600080fd5b6000848152600b602052604090206001810154600282015482548390611831906143e6565b80601f016020809104026020016040519081016040528092919081815260200182805461185d906143e6565b80156118aa5780601f1061187f576101008083540402835291602001916118aa565b820191906000526020600020905b81548152906001019060200180831161188d57829003601f168201915b505050505092509250925092509193909250565b60006118ca83836122f6565b9392505050565b6118da336117d3565b806118ef57506000546001600160a01b031633145b6118f857600080fd5b60085462010000900460ff166119205760405162461bcd60e51b8152600401610a60906142aa565b60145461193f5760405162461bcd60e51b8152600401610a60906142aa565b610e39601460008154811061195657611956614468565b906000526020600020015433868686868080601f0160208091040260200160405190810160405280939291908181526020018383808284376000920191909152506125d892505050565b60606014805480602002602001604051908101604052809291908181526020018280548015610a2e5760200282019190600052602060002090815481526020019060010190808311610f96575050505050905090565b3360009081526017602052604090205460ff16611a445760405162461bcd60e51b815260206004820152600c60248201526b155b985d5d1a1bdc9a5e995960a21b6044820152606401610a60565b6000818152600b602052604090208054611a5d906143e6565b15159050611aa55760405162461bcd60e51b8152602060048201526015602482015274111bd8dd5b595b9d08191bd95cdb9d08195e1a5cdd605a1b6044820152606401610a60565b6000818152600b6020526040808220815160608101909252805482908290611acc906143e6565b80601f0160208091040260200160405190810160405280929190818152602001828054611af8906143e6565b8015611b455780601f10611b1a57610100808354040283529160200191611b45565b820191906000526020600020905b815481529060010190602001808311611b2857829003601f168201915b505050505081526020016001820154815260200160028201548152505090506000600c60008360200151815260200190815260200160002054905060008111611bc05760405162461bcd60e51b815260206004820152600d60248201526c092dcecc2d8d2c840d2dcc8caf609b1b6044820152606401610a60565b600d805460009190611bd4906001906143a3565b81548110611be457611be4614468565b9060005260206000200154905080600d600184611c0191906143a3565b81548110611c1157611c11614468565b6000918252602080832090910192909255828152600c90915260409020829055600d805480611c4257611c42614452565b600082815260208082208301600019908101839055909201909255848101518252600c81526040808320839055868352600b909152812090611c848282613963565b506000600182018190556002909101558251602084015160405186927f3d9bba27d3e360d8c80645beed7e991454a8271bf6f269a24f7782be0f0d0654926109989261420f565b611cd3612179565b6008805461ff0019169055565b610c7033338585858080601f01602080910402602001604051908101604052809392919081815260200183838082843760009201919091525061292492505050565b611d2a612179565b6112e1828280806020026020016040519081016040528093929190818152602001838360200280828437600092019190915250612bdf92505050565b611d6e612179565b610c706014838361399d565b611d8433866122f6565b80611db257506001600160a01b0385166000908152600a602090815260408083203384529091529020548311155b611dce5760405162461bcd60e51b8152600401610a60906142c6565b6001600160a01b0385166000908152600a602090815260408083203384529091529020548311611e4f576001600160a01b0385166000908152600a60209081526040808320338452909152902054611e269084612375565b6001600160a01b0386166000908152600a60209081526040808320338452909152902055611e74565b6001600160a01b0385166000908152600a602090815260408083203384529091528120555b610f553386868686868080601f01602080910402602001604051908101604052809392919081815260200183838082843760009201919091525061238192505050565b611ebf612179565b6001600160a01b038116611f245760405162461bcd60e51b815260206004820152602660248201527f4f776e61626c653a206e6577206f776e657220697320746865207a65726f206160448201526564647265737360d01b6064820152608401610a60565b610e6f8161270b565b6000611f81863333888888888080601f01602080910402602001604051908101604052809392919081815260200183838082843760009201829052506040805160208101909152908152925061275b915050565b9695505050505050565b6000611f95612cc8565b905090565b6001600160a01b038116331415611fb057600080fd5b6001600160a01b0381166000818152601560209081526040808320338085529252808320805460ff19169055519092917f50546e66e5f44d728365dc3908c63bc5cfeeab470722c1677e3073a6ac294aa191a350565b6000826040516020016120199190614079565b60408051808303601f190181529082905280516020909101206329965a1d60e01b8252306004830152602482018190526001600160a01b03841660448301529150731820a4b7618bde71dce8cdc73aab6c95905fad24906329965a1d90606401600060405180830381600087803b15801561209357600080fd5b505af11580156120a7573d6000803e3d6000fd5b50505050505050565b6001806000836040516020016120c69190614079565b60408051808303601f19018152918152815160209283012083529082019290925201600020805460ff191691151591909117905550565b6121078282612b5c565b156121545760405162461bcd60e51b815260206004820152601f60248201527f526f6c65733a206163636f756e7420616c72656164792068617320726f6c65006044820152606401610a60565b6001600160a01b0316600090815260209190915260409020805460ff19166001179055565b6000546001600160a01b03163314610ff05760405162461bcd60e51b815260206004820181905260248201527f4f776e61626c653a2063616c6c6572206973206e6f7420746865206f776e65726044820152606401610a60565b60005b6000838152601a602052604090205481101561225f576000838152601b60209081526040808320601a909252822080548391908590811061221957612219614468565b6000918252602080832091909101546001600160a01b031683528201929092526040019020805460ff19169115159190911790558061225781614421565b9150506121d6565b5060005b81518110156122d6576000838152601b6020526040812083516001929085908590811061229257612292614468565b6020908102919091018101516001600160a01b03168252810191909152604001600020805460ff1916911515919091179055806122ce81614421565b915050612263565b506000828152601a602090815260409091208251610c70928401906139d8565b6000816001600160a01b0316836001600160a01b0316148061233d57506001600160a01b0380841660009081526015602090815260408083209386168352929052205460ff165b806118ca5750600854610100900460ff1680156118ca575050506001600160a01b031660009081526017602052604090205460ff1690565b60006118ca82846143a3565b6014546123a05760405162461bcd60e51b8152600401610a60906142aa565b816000805b6014548110156124a7576001600160a01b038716600090815260136020526040812060148054919291849081106123de576123de614468565b906000526020600020015481526020019081526020016000205491508183116124465761243c6014828154811061241757612417614468565b906000526020600020015489898987896040518060200160405280600081525061275b565b50600092506124a7565b8115612495576124876014828154811061246257612462614468565b906000526020600020015489898986896040518060200160405280600081525061275b565b5061249282846143a3565b92505b8061249f81614421565b9150506123a5565b5081156120a75760405162461bcd60e51b8152600401610a60906142e2565b6124d1600282612cf1565b6040516001600160a01b038216907fe94479a9f7e1952cc78f2d6baab678adc1b772d936c6583def489e524cb6669290600090a250565b6001600160a01b038416600090815260136020908152604080832089845290915290205483111561254b5760405162461bcd60e51b8152600401610a60906142e2565b61255b8686866000878787612d73565b61256b8686866000878787612e35565b612576848785612ebd565b6125828585858561317c565b836001600160a01b0316856001600160a01b0316877fce306c3dbc4a497124b5a4f2be8388b41084c1d74663da27ecee1186c00239bf86856040516125c89291906142fe565b60405180910390a4505050505050565b6125f78585600086868660405180602001604052806000815250612e35565b61260384848484613306565b61260e838684613456565b61262d8585600086868660405180602001604052806000815250613594565b826001600160a01b0316846001600160a01b0316867ff0ded82afbb1bb3ff3fc48cb2a26584aa84e4af0bf309c804ecdb94d0f6a98bb8585604051612673929190614317565b60405180910390a45050505050565b600061268e83836122f6565b806126c657506001600160a01b03808316600090815260196020908152604080832088845282528083209387168352929052205460ff165b80610fd65750600854610100900460ff168015610fd6575050506000918252601b602090815260408084206001600160a01b0393909316845291905290205460ff1690565b600080546001600160a01b038381166001600160a01b0319831681178455604051919092169283917f8be0079c531659141344cd1fd0a4f28419497f9722a3daafe3b4186f6b6457e09190a35050565b6001600160a01b03851660009081526013602090815260408083208a845290915281205484111561279e5760405162461bcd60e51b8152600401610a60906142e2565b81518890158015906127b257506040845110155b156127c4576127c1898561361c565b90505b6127d389898989898989612d73565b6127e289898989898989612e35565b6127ed878a87612ebd565b6127f8878787613648565b612803868287613456565b61281281898989898989613594565b856001600160a01b0316876001600160a01b03168a7fff4e9a26af4eb73b8bacfaa4abd4fea03d9448e7b912dc5ff4019048875aa2d48b89898960405161285c9493929190614095565b60405180910390a48881146128a75780897f67c8ba31d2dd11f1384577b3405b04ed91eed1231e408432ad2458cab37b2fa18760405161289e91815260200190565b60405180910390a35b98975050505050505050565b6128df6040518060400160405280600a81526020016922a92199182a37b5b2b760b11b81525083612006565b61290d6040518060400160405280600c81526020016b22a921989a18182a37b5b2b760a11b81525083612006565b80156112e1576008805460ff191660011790555050565b6014546129435760405162461bcd60e51b8152600401610a60906142aa565b816000805b601454811015612a3f576001600160a01b0386166000908152601360205260408120601480549192918490811061298157612981614468565b906000526020600020015481526020019081526020016000205491508183116129e7576129de601482815481106129ba576129ba614468565b90600052602060002001548888868860405180602001604052806000815250612508565b60009250612a3f565b612a21601482815481106129fd576129fd614468565b90600052602060002001548888858860405180602001604052806000815250612508565b612a2b82846143a3565b925080612a3781614421565b915050612948565b5081156117015760405162461bcd60e51b8152600401610a60906142e2565b612a696002826120fd565b6040516001600160a01b038216907f6ae172837ea30b801fbfcdd4108aa1d5bf8ff775444fd70256b44e6bf3dfc3f690600090a250565b6000612aac30866137b6565b90506001600160a01b03811615801590612ac35750835b15612b0057612ad1816117d3565b15612adf57612adf816124c6565b6001600160a01b0381166000908152601760205260409020805460ff191690555b612b0a8587612006565b828015612b1d5750612b1b866117d3565b155b15612b2b57612b2b86612a5e565b8115611701576001600160a01b0386166000908152601760205260409020805460ff19166001179055505050505050565b60006001600160a01b038216612bbf5760405162461bcd60e51b815260206004820152602260248201527f526f6c65733a206163636f756e7420697320746865207a65726f206164647265604482015261737360f01b6064820152608401610a60565b506001600160a01b03166000908152602091909152604090205460ff1690565b60005b601654811015612c4b5760006017600060168481548110612c0557612c05614468565b6000918252602080832091909101546001600160a01b031683528201929092526040019020805460ff191691151591909117905580612c4381614421565b915050612be2565b5060005b8151811015612cb457600160176000848481518110612c7057612c70614468565b6020908102919091018101516001600160a01b03168252810191909152604001600020805460ff191691151591909117905580612cac81614421565b915050612c4f565b5080516112e19060169060208401906139d8565b466000908152600360205260408120548015612ce357919050565b612ceb613874565b91505090565b612cfb8282612b5c565b612d515760405162461bcd60e51b815260206004820152602160248201527f526f6c65733a206163636f756e7420646f6573206e6f74206861766520726f6c6044820152606560f81b6064820152608401610a60565b6001600160a01b0316600090815260209190915260409020805460ff19169055565b6000612daa866040518060400160405280601381526020017222a921989a18182a37b5b2b739a9b2b73232b960691b8152506137b6565b90506001600160a01b03811615612e2b5760405163139d569560e21b81526001600160a01b03821690634e755a5490612df89060009036908d908d908d908d908d908d908d9060040161415e565b600060405180830381600087803b158015612e1257600080fd5b505af1158015612e26573d6000803e3d6000fd5b505050505b5050505050505050565b6000612e6f306040518060400160405280601681526020017522a921989a18182a37b5b2b739ab30b634b230ba37b960511b8152506137b6565b90506001600160a01b03811615612e2b57604051632907d53b60e11b81526001600160a01b0382169063520faa7690612df89060009036908d908d908d908d908d908d908d9060040161415e565b6001600160a01b0383166000908152601360209081526040808320858452909152902054612eeb9082612375565b6001600160a01b0384166000908152601360209081526040808320868452825280832093909355601090522054612f229082612375565b600083815260106020526040902081905561300f576000828152600f602052604090205480612f635760405162461bcd60e51b8152600401610a6090614272565b600e805460009190612f77906001906143a3565b81548110612f8757612f87614468565b9060005260206000200154905080600e600184612fa491906143a3565b81548110612fb457612fb4614468565b6000918252602080832090910192909255828152600f90915260409020829055600e805480612fe557612fe5614452565b600082815260208082208301600019908101839055909201909255858252600f9052604081205550505b6001600160a01b0383166000908152601360209081526040808320858452909152902054610c70576001600160a01b0383166000908152601260209081526040808320858452909152902054806130785760405162461bcd60e51b8152600401610a6090614272565b6001600160a01b0384166000908152601160205260408120805461309e906001906143a3565b815481106130ae576130ae614468565b60009182526020808320909101546001600160a01b03881683526011909152604090912090915081906130e26001856143a3565b815481106130f2576130f2614468565b60009182526020808320909101929092556001600160a01b038716808252601283526040808320858452845280832086905590825260119092522080548061313c5761313c614452565b6000828152602080822083016000199081018390559092019092556001600160a01b03871682526012815260408083208784529091528120555050505050565b60085460ff161561319f5760405162461bcd60e51b8152600401610a6090614256565b6131a882613898565b6131c45760405162461bcd60e51b8152600401610a6090614272565b6001600160a01b0383166131ea5760405162461bcd60e51b8152600401610a609061428e565b6001600160a01b0383166000908152600960205260409020548211156132225760405162461bcd60e51b8152600401610a60906142e2565b6001600160a01b0383166000908152600960205260409020546132459083612375565b6001600160a01b03841660009081526009602052604090205560075461326b9083612375565b600781905550826001600160a01b0316846001600160a01b03167fb7d0d6b60740753e9f16692a2f479472a1385aec2420fa43225b02f2ffa1afe784846040516132b69291906142fe565b60405180910390a36040518281526000906001600160a01b038516907fddf252ad1be2c89b69c2b068fc378daa952ba7f163c4a11628f55a4df523b3ef906020015b60405180910390a350505050565b60085460ff16156133295760405162461bcd60e51b8152600401610a6090614256565b61333282613898565b61334e5760405162461bcd60e51b8152600401610a6090614272565b6001600160a01b0383166133895760405162461bcd60e51b8152602060048201526002602482015261353760f01b6044820152606401610a60565b60075461339690836138bb565b6007556001600160a01b0383166000908152600960205260409020546133bc90836138bb565b6001600160a01b0380851660008181526009602052604090819020939093559151908616907f0e9905d62635f049c2f4e11678ebf9dc3d1f8c4a653e290759b772e47ba00d009061341090869086906142fe565b60405180910390a36040518281526001600160a01b038416906000907fddf252ad1be2c89b69c2b068fc378daa952ba7f163c4a11628f55a4df523b3ef906020016132f8565b8015610c70576001600160a01b03831660009081526012602090815260408083208584529091529020546134c8576001600160a01b0383166000818152601160209081526040808320805460018101825581855283852001879055938352925460128252838320868452909152919020555b6001600160a01b03831660009081526013602090815260408083208584529091529020546134f690826138bb565b6001600160a01b0384166000908152601360209081526040808320868452825280832093909355600f9052205461356757600e80546001810182557fbb7b4a454dc3493923482f07822329ed19e8244eff582cc204f8554c3620c3fd01839055546000838152600f60205260409020555b60008281526010602052604090205461358090826138bb565b600083815260106020526040902055505050565b60006135ce8560405180604001604052806016815260200175115490cc4d0c0c151bdad95b9cd49958da5c1a595b9d60521b8152506137b6565b90506001600160a01b03811615612e2b57604051637a325abb60e11b81526001600160a01b0382169063f464b57690612df89060009036908d908d908d908d908d908d908d9060040161415e565b6020810151600090600019908082141561363c5760408401519250613640565b8492505b505092915050565b60085460ff161561366b5760405162461bcd60e51b8152600401610a6090614256565b61367481613898565b6136905760405162461bcd60e51b8152600401610a6090614272565b6001600160a01b0382166136cb5760405162461bcd60e51b8152602060048201526002602482015261353760f01b6044820152606401610a60565b6001600160a01b0383166000908152600960205260409020548111156137035760405162461bcd60e51b8152600401610a60906142e2565b6001600160a01b0383166000908152600960205260409020546137269082612375565b6001600160a01b03808516600090815260096020526040808220939093559084168152205461375590826138bb565b6001600160a01b0380841660008181526009602052604090819020939093559151908516907fddf252ad1be2c89b69c2b068fc378daa952ba7f163c4a11628f55a4df523b3ef906137a99085815260200190565b60405180910390a3505050565b600080826040516020016137ca9190614079565b60408051808303601f1901815290829052805160209091012063555ddc6560e11b82526001600160a01b0386166004830152602482018190529150731820a4b7618bde71dce8cdc73aab6c95905fad249063aabbb8ca9060440160206040518083038186803b15801561383c57600080fd5b505afa158015613850573d6000803e3d6000fd5b505050506040513d601f19601f82011682018060405250810190610fd69190613b02565b60004681613880611709565b60009283526003602052604090922082905550919050565b60065460009082906138b4906138ae83826138c7565b906138d3565b1492915050565b60006118ca828461434a565b60006118ca8284614362565b60006118ca8284614384565b8280546138eb906143e6565b90600052602060002090601f01602090048101928261390d5760008555613953565b82601f1061392657805160ff1916838001178555613953565b82800160010185558215613953579182015b82811115613953578251825591602001919060010190613938565b5061395f929150613a2d565b5090565b50805461396f906143e6565b6000825580601f1061397f575050565b601f016020900490600052602060002090810190610e6f9190613a2d565b828054828255906000526020600020908101928215613953579160200282015b828111156139535782358255916020019190600101906139bd565b828054828255906000526020600020908101928215613953579160200282015b8281111561395357825182546001600160a01b0319166001600160a01b039091161782556020909201916001909101906139f8565b5b8082111561395f5760008155600101613a2e565b60008083601f840112613a5457600080fd5b50813567ffffffffffffffff811115613a6c57600080fd5b6020830191508360208260051b8501011115613a8757600080fd5b9250929050565b80358015158114613a9e57600080fd5b919050565b60008083601f840112613ab557600080fd5b50813567ffffffffffffffff811115613acd57600080fd5b602083019150836020828501011115613a8757600080fd5b600060208284031215613af757600080fd5b81356118ca8161447e565b600060208284031215613b1457600080fd5b81516118ca8161447e565b60008060408385031215613b3257600080fd5b8235613b3d8161447e565b91506020830135613b4d8161447e565b809150509250929050565b600080600060608486031215613b6d57600080fd5b8335613b788161447e565b92506020840135613b888161447e565b929592945050506040919091013590565b600080600080600060808688031215613bb157600080fd5b8535613bbc8161447e565b94506020860135613bcc8161447e565b935060408601359250606086013567ffffffffffffffff811115613bef57600080fd5b613bfb88828901613aa3565b969995985093965092949392505050565b60008060408385031215613c1f57600080fd5b8235613c2a8161447e565b9150613c3860208401613a8e565b90509250929050565b60008060008060008060a08789031215613c5a57600080fd5b8635613c658161447e565b9550602087013567ffffffffffffffff811115613c8157600080fd5b613c8d89828a01613aa3565b9096509450613ca0905060408801613a8e565b9250613cae60608801613a8e565b9150613cbc60808801613a8e565b90509295509295509295565b60008060408385031215613cdb57600080fd5b8235613ce68161447e565b946020939093013593505050565b60008060008060608587031215613d0a57600080fd5b8435613d158161447e565b935060208501359250604085013567ffffffffffffffff811115613d3857600080fd5b613d4487828801613aa3565b95989497509550505050565b60008060208385031215613d6357600080fd5b823567ffffffffffffffff811115613d7a57600080fd5b613d8685828601613a42565b90969095509350505050565b600060208284031215613da457600080fd5b5035919050565b60008060408385031215613dbe57600080fd5b823591506020830135613b4d8161447e565b600080600060608486031215613de557600080fd5b833592506020840135613df78161447e565b91506040840135613e078161447e565b809150509250925092565b60008060008060008060008060c0898b031215613e2e57600080fd5b883597506020890135613e408161447e565b96506040890135613e508161447e565b955060608901359450608089013567ffffffffffffffff80821115613e7457600080fd5b613e808c838d01613aa3565b909650945060a08b0135915080821115613e9957600080fd5b50613ea68b828c01613aa3565b999c989b5096995094979396929594505050565b600080600060608486031215613ecf57600080fd5b833592506020840135613b888161447e565b600080600080600060808688031215613ef957600080fd5b853594506020860135613bcc8161447e565b600080600060408486031215613f2057600080fd5b83359250602084013567ffffffffffffffff811115613f3e57600080fd5b613f4a86828701613a42565b9497909650939450505050565b60008060008060608587031215613f6d57600080fd5b84359350602085013567ffffffffffffffff811115613f8b57600080fd5b613f9787828801613aa3565b9598909750949560400135949350505050565b60008060008060608587031215613fc057600080fd5b8435935060208501359250604085013567ffffffffffffffff811115613d3857600080fd5b600080600060408486031215613ffa57600080fd5b83359250602084013567ffffffffffffffff81111561401857600080fd5b613f4a86828701613aa3565b81835281816020850137506000828201602090810191909152601f909101601f19169091010190565b600081518084526140658160208601602086016143ba565b601f01601f19169290920160200192915050565b6000825161408b8184602087016143ba565b9190910192915050565b60018060a01b03851681528360208201526080604082015260006140bc608083018561404d565b82810360608401526140ce818561404d565b979650505050505050565b6020808252825182820181905260009190848201906040850190845b8181101561411a5783516001600160a01b0316835292840192918401916001016140f5565b50909695505050505050565b6020808252825182820181905260009190848201906040850190845b8181101561411a57835183529284019291840191600101614142565b60006101008083526141738184018c8e614024565b602084018b90526001600160a01b038a8116604086015289811660608601528816608085015260a0840187905283810360c085015290506141b4818661404d565b905082810360e08401526141c8818561404d565b9c9b505050505050505050505050565b6040815260006141ec604083018587614024565b9050826020830152949350505050565b6020815260006118ca602083018461404d565b604081526000614222604083018561404d565b90508260208301529392505050565b606081526000614244606083018661404d565b60208301949094525060400152919050565b6020808252600290820152610d4d60f21b604082015260600190565b602080825260029082015261035360f41b604082015260600190565b6020808252600290820152611a9b60f11b604082015260600190565b602080825260029082015261353560f01b604082015260600190565b602080825260029082015261353360f01b604082015260600190565b6020808252600290820152611a9960f11b604082015260600190565b828152604060208201526000610fd6604083018461404d565b828152606060208201526000614330606083018461404d565b828103604084015260008152602081019150509392505050565b6000821982111561435d5761435d61443c565b500190565b60008261437f57634e487b7160e01b600052601260045260246000fd5b500490565b600081600019048311821515161561439e5761439e61443c565b500290565b6000828210156143b5576143b561443c565b500390565b60005b838110156143d55781810151838201526020016143bd565b83811115610e395750506000910152565b600181811c908216806143fa57607f821691505b6020821081141561441b57634e487b7160e01b600052602260045260246000fd5b50919050565b60006000198214156144355761443561443c565b5060010190565b634e487b7160e01b600052601160045260246000fd5b634e487b7160e01b600052603160045260246000fd5b634e487b7160e01b600052603260045260246000fd5b6001600160a01b0381168114610e6f57600080fdfea2646970667358221220783e7e91b58ad75135b1b7547fda98f4be2ebfaf38882ab54de1ee5f52a9d26364736f6c63430008070033",
  "linkReferences": {},
  "deployedLinkReferences": {}
}